:100000000C9483010C94B4010C94B4010C94B401CD
:100010000C94B4010C94B4010C94B4010C94B4018C
:100020000C94B4010C94B4010C94B4010C94B4017C
:100030000C94B4010C94B4010C94B4010C94B4016C
:100040000C94B4010C94B4010C94B4010C94B4015C
:100050000C94B4010C94B4010C94B4010C9482106F
:100060000C94B4010C94B4010C94B4010C94B4013C
:100070000C94B4010C94B4010C94B4010C94B4012C
:100080000C94B4010C94B4010C94B4010C94B4011C
:100090000C94B80D0C94EE0D0C94B4010C94B401B6
:1000A0000C94B4010C94B4010C94B4010C94B401FC
:1000B0000C94B4010C94B4010C94B4010C94B401EC
:1000C0000C94B4010C94B4010C94B4010C944F0E34
:1000D0000C94850E0C94B4010C94B4010C94B401EE
:1000E0000C94B40198029D02AC02BB02CA02D90270
:1000F000E802CF11D211C111C511CB110912D611CD
:10010000DA11E011E411E811EE11F211F611091201
:10011000FC11001204120C94F6110C94EE110C94C4
:1001200009120C947B130C946A0C0C94CB110C9454
:1001300075130C94D9020C94E0110C94AC020C943D
:10014000D6110C94D2110C94E4110C94780C0C94EC
:10015000E8110C945F130C94CA020C94EA0C0C94F2
:10016000CF110C94C5110C94FC110C94AF0E0C948F
:1001700067130C94DA110C9400120C9432020C9454
:1001800004120C94B90E0C94180E0C94F60E0C94E8
:100190008C0C0C940C0D0C94220E0C945E0C0C9494
:1001A000E8020C945C020C94F2110C9498020C94EA
:1001B0009D020C94C1110C94BB0200000A0B0209B1
:1001C0000C0D0E08070304010000000000000000F1
:1001D000000000000000000000000000000000001F
:1001E00000000000000012111000000000000000DC
:1001F00000000000000000000000000000000000FF
:100200000102102020080810204010204080020128
:10021000020108040201010204081020408080400D
:10022000201008040201800402018040201008040C
:1002300002010804020101020408102040800102AA
:100240000408102040800505050507050808080872
:10025000020202020A0A080804040404010101015E
:100260000101010103030303030303030407070759
:100270000C0C0C0C0C0C0C0C0202020206060606FE
:10028000060606060B0B0B0B0B0B0B0B00002200DC
:10029000250028002B002E00310034000201000050
:1002A000050108010B0100002100240027002A009D
:1002B0002D003000330001010000040107010A0194
:1002C0004E414E494E495459494E46CDCCCC3D0A3B
:1002D000D7233C17B7D13877CC2B329595E6241F1E
:1002E000B14F0A000020410000C84200401C4620D7
:1002F000BCBE4CCA1B0E5AAEC59D74003202220E03
:10030000B90E67135C0211241FBECFEFD1E2DEBF2E
:10031000CDBF00E00CBF15E0A0E0B2E0EAEEF3E3F1
:1003200000E00BBF02C007900D92AE36B107D9F7BF
:1003300027E0AEE6B5E001C01D92AD3BB207E1F7A4
:1003400011E0C2E8D1E000E006C021970109802F4A
:10035000FE010E940416CE37D10780E00807A9F7F6
:100360000E94E70E0C94E3190C94000026E00C9414
:10037000530D60E08AE30E940A1260E08BE30E9462
:100380000A1260E08CE30E940A1260E08DE30E9492
:100390000A1260E08EE30E940A1260E08FE30E947E
:1003A0000A1260E080E40E940A1260E081E40E9488
:1003B0000A1260E082E40E940A1260E083E40E9474
:1003C0000A1260E084E40E940A1261E084E00E9464
:1003D0000A1261E085E00E940A1261E086E00E9454
:1003E0000A1261E087E00E940A1261E089E00E943F
:1003F0000A1260E088E00E940A1260E084E00E9435
:10040000461260E085E00E94461260E086E00E94AD
:10041000461260E087E00E94461260E089E00E9498
:10042000461240E855E260E070E081E097E00E940B
:10043000B60140E855E260E070E084E696E00E9494
:10044000B6016BE072E084E696E00E94430F84E61A
:1004500096E00E943F0F6AE070E080E090E00E942A
:10046000F110089561E575E08AE995E00E94E412D3
:1004700061E575E084E995E00E94E41261E575E0CC
:100480008EE895E00E94E41261E575E088E895E069
:100490000E94E41261E575E082E895E00E94E412B2
:1004A00061E575E08CE795E00E94E41261E575E096
:1004B00086E795E00C94E41286E795E00E947612B8
:1004C0008CE795E00E94761282E895E00E94761211
:1004D00088E895E00E9476128EE895E00E947612F8
:1004E00084E995E00E9476128AE995E00C947612F0
:1004F000CF93C1E081E097E00E945E0C892B09F464
:1005000024C181E097E00E94780C682F082E000C2F
:10051000990BAA0BBB0BFC01E156F109E730F10581
:1005200008F065C08827EE58FF4F8F4F0C940416D3
:1005300010927505C09374054FC010927505109206
:100540007405C09373051092720510927105109294
:10055000700510926F05CECF10927505109274053C
:100560001092730510927205C09371051092700578
:1005700010926F05BFCF10927505109274051092FE
:100580007305C09372051092710510927005109258
:100590006F05B0CF10927505109274051092730517
:1005A0001092720510927105C093700510926F053C
:1005B000A1CF1092750510927405109273051092D8
:1005C00072051092710510927005C0936F0592CF5D
:1005D000C093750510927405109273051092720500
:1005E000109271051092700510926F0583CF6A30DA
:1005F000C1F481E080936E05109275051092740528
:100600001092730510927205109271051092700588
:1006100010926F0560E575E081E097E0CF910C9452
:10062000430F80917505882389F08AE995E00E943F
:100630003E138AE995E00E945D136093BC057093B8
:10064000BD058093BE059093BF0554CF809174057E
:10065000882389F084E995E00E943E1384E995E0BF
:100660000E945D136093B8057093B9058093BA0535
:100670009093BB053FCF80917305882389F08EE866
:1006800095E00E943E138EE895E00E945D13609312
:10069000B4057093B5058093B6059093B7052ACF3E
:1006A00080917205882389F088E895E00E943E13C6
:1006B00088E895E00E945D136093B0057093B105E2
:1006C0008093B2059093B30515CF8091710588236F
:1006D00089F082E895E00E943E1382E895E00E944E
:1006E0005D136093AC057093AD058093AE05909358
:1006F000AF0500CF80917005882389F08CE795E0E5
:100700000E943E138CE795E00E945D136093A8055C
:100710007093A9058093AA059093AB05EBCE8091C9
:100720006F05882309F4E6CE86E795E00E943E1324
:1007300086E795E00E945D136093A4057093A5057C
:100740008093A6059093A705D5CECF9108954F929B
:100750005F926F927F928F929F92AF92BF92CF9251
:10076000DF92EF92FF92CF93DF93109238061092B0
:10077000390610923A0610923B06109230061092FB
:10078000310610923206109233061092280610920B
:10079000290610922A0610922B061092200610921B
:1007A000210610922206109223061092180610922B
:1007B000190610921A0610921B061092100610923B
:1007C000110610921206109213061092080610924B
:1007D000090610920A0610920B061092000610925B
:1007E000010610920206109203061092F80510926C
:1007F000F9051092FA051092FB051092F00510927F
:10080000F1051092F2051092F305C4EFD1E08AE3EE
:100810000E948F11BC01990F880B990B0E94BB1489
:100820006B017C0160933C0670933D0680933E060D
:1008300090933F06209138063091390640913A0650
:1008400050913B060E946B15181644F4C09238066E
:10085000D0923906E0923A06F0923B068BE30E9472
:100860008F11BC01990F880B990B0E94BB146B016F
:100870007C0160933406709335068093360690931E
:100880003706209130063091310640913206509162
:1008900033060E946B15181644F4C0923006D092AD
:1008A0003106E0923206F09233068DE30E948F11FA
:1008B000BC01990F880B990B0E94BB146B017C0142
:1008C00060932C0670932D0680932E0690932F062E
:1008D000209128063091290640912A0650912B0636
:1008E0000E946B15181644F4C0922806D09229066F
:1008F000E0922A06F0922B068EE30E948F11BC0133
:10090000990F880B990B0E94BB146B017C016093BB
:10091000240670932506809326069093270620913F
:1009200020063091210640912206509123060E9414
:100930006B15181644F4C0922006D0922106E0925E
:100940002206F09223068FE30E948F11BC01990FBB
:10095000880B990B0E94BB146B017C0160931C06F1
:1009600070931D0680931E0690931F062091180613
:100970003091190640911A0650911B060E946B1582
:10098000181644F4C0921806D0921906E0921A067E
:10099000F0921B0681E40E948F11BC01990F880B15
:1009A000990B0E94BB146B017C0160930C06709341
:1009B0000D0680930E0690930F0620910806309145
:1009C000090640910A0650910B060E946B151816F5
:1009D00044F4C0920806D0920906E0920A06F0920A
:1009E0000B0682E40E948F11BC01990F880B990BB2
:1009F0000E94BB146B017C01609304067093050692
:100A00008093060690930706209100063091010618
:100A100040910206509103060E946B15181644F48B
:100A2000C0920006D0920106E0920206F092030600
:100A300080E40E948F11BC01990F880B990B0E94D2
:100A4000BB146B017C0160931406709315068093B0
:100A500016069093170620911006309111064091CA
:100A60001206509113060E946B15181644F4C0929A
:100A70001006D0921106E0921206F092130683E45B
:100A80000E948F11BC01990F880B990B0E94BB1417
:100A90006B017C016093FC057093FD058093FE055E
:100AA0009093FF052091F8053091F9054091FA05E2
:100AB0005091FB050E946B15181644F4C092F8057E
:100AC000D092F905E092FA05F092FB0584E40E94C9
:100AD0008F11BC01990F880B990B0E94BB146B01FD
:100AE0007C016093F4057093F5058093F60590936F
:100AF000F7052091F0053091F1054091F2055091F4
:100B0000F3050E946B15181644F4C092F005D092BC
:100B1000F105E092F205F092F305219709F077CE06
:100B200020E030E040EA50E46091380670913906E8
:100B300080913A0690913B060E94701520E030E0CB
:100B400040E85AE30E947015609360067093610656
:100B5000809362069093630620E03CE940EE58E4FF
:100B60000E94701520E030E44CE156E40E94181415
:100B70006B017C0120E030E048E452E40E946B15F8
:100B800018168CF420E030E040E451E4C701B601CF
:100B90000E94A6136093EC057093ED058093EE051B
:100BA0009093EF051BC020E030E040E251E4C70124
:100BB000B6010E94131488234CF0C092EC05D09229
:100BC000ED05E092EE05F092EF0508C01092EC05FD
:100BD0001092ED051092EE051092EF0520E030E046
:100BE00040EA50E4609130067091310680913206FF
:100BF000909133060E94701520E030E040E85AE3FF
:100C00000E94701560935C0670935D0680935E068B
:100C100090935F0620E03CE940EE58E40E94701596
:100C200020E030E44CE156E40E9418146B017C0192
:100C300020E030E040E251E40E94131488234CF09D
:100C4000C092E405D092E505E092E605F092E70552
:100C500008C01092E4051092E5051092E605109286
:100C6000E70520E030E040EA50E46091280670910A
:100C7000290680912A0690912B060E94701520E08B
:100C800030E040E85AE30E94701560935806709374
:100C9000590680935A0690935B0620E03CE940EEAB
:100CA00058E40E94701520E030E44CE156E40E94C4
:100CB00018146B017C0120E030E040E251E40E9416
:100CC000131488234CF0C092E005D092E105E09225
:100CD000E205F092E30508C01092E0051092E105EC
:100CE0001092E2051092E30520E030E040EA50E483
:100CF0006091200670912106809122069091230632
:100D00000E94701520E030E040E85AE30E94701520
:100D10006093540670935506809356069093570639
:100D200020E03CE940EE58E40E94701520E030E4F9
:100D30004CE156E40E9418146B017C0120E030E085
:100D400040E251E40E94131488234CF0C092DC0569
:100D5000D092DD05E092DE05F092DF0508C010922A
:100D6000DC051092DD051092DE051092DF0520E013
:100D700030E040EA50E460911806709119068091C5
:100D80001A0690911B060E94701520E030E040E8A2
:100D90005AE30E9470156093500670935106809339
:100DA00052069093530620E03CE940EE58E40E943E
:100DB000701520E030E44CE156E40E9418146B01F9
:100DC0007C0120E030E040E251E40E9413148823CB
:100DD0004CF0C092D805D092D905E092DA05F09295
:100DE000DB0508C01092D8051092D9051092DA05DB
:100DF0001092DB0520E030E040EA50E46091080604
:100E00007091090680910A0690910B060E94701558
:100E100020E030E040E85AE30E94701560934C06F1
:100E200070934D0680934E0690934F0620E03CE968
:100E300040EE58E40E94701520E030E44CE156E4A6
:100E40000E9418146B017C0120E030E048E452E479
:100E50000E946B1518168CF420E030E040E351E45A
:100E6000C701B6010E94A6136093D4057093D505FF
:100E70008093D6059093D7051BC020E030E040E278
:100E800051E4C701B6010E94131488234CF0C092AC
:100E9000D405D092D505E092D605F092D70508C0CA
:100EA0001092D4051092D5051092D6051092D70550
:100EB00020E030E040EA50E46091000670910106C5
:100EC00080910206909103060E94701520E030E0A8
:100ED00040E85AE30E9470156B017C01609348065C
:100EE0007093490680934A0690934B064090060201
:100EF000509007026090080270900902A3019201CD
:100F00000E9418146093D0057093D1058093D20588
:100F10009093D3052091D4053091D5054091D60505
:100F20005091D7050E9470156093C8057093C9054C
:100F30008093CA059093CB052DEC3CEC44E352E43E
:100F40006091D8057091D9058091DA059091DB0503
:100F50000E94A61320E030E048EC52E40E94701595
:100F600020E939E949E550E40E9418146093A0058E
:100F70007093A1058093A2059093A30520E030E033
:100F80004AEF5EE36091100670911106809112069F
:100F9000909113060E9470156093C0057093C1056F
:100FA0008093C2059093C30520E030E040EA50E40E
:100FB0006091F8057091F9058091FA059091FB0513
:100FC0000E94701520E030E040E85AE30E9470155E
:100FD00060934406709345068093460690934706B7
:100FE00020E03CE940EE58E40E94701520E030E437
:100FF0004CE156E40E9418144B015C0120E030E003
:1010000048E452E40E946B1518168CF420E030E09E
:1010100040E451E4C501B4010E94A6136093E805C1
:101020007093E9058093EA059093EB051BC020E0DF
:1010300030E040E251E4C501B4010E94131488235A
:101040004CF08092E8059092E905A092EA05B092F2
:10105000EB0508C01092E8051092E9051092EA0528
:101060001092EB0520E030E040EA50E46091F0059A
:101070007091F1058091F2059091F3050E94701531
:1010800020E030E040E85AE30E947015609340068B
:1010900070934106809342069093430623EF34E019
:1010A00045EB5FE3C301B2010E9470159B01AC01E7
:1010B000C701B6010E9418146093CC057093CD054A
:1010C0008093CE059093CF052091E8053091E905F6
:1010D0004091EA055091EB050E9470156093C4059C
:1010E0007093C5058093C6059093C705C090E00531
:1010F000D090E105E090E205F090E30520E030E0DB
:1011000044E352E4C701B6010E946B1588238CF0BA
:1011100060E084E00E94461260E085E00E94461292
:1011200060E086E00E94461261E087E00E9446127D
:10113000C2C020E030E044E352E4C701B6010E949F
:10114000131488230CF520E030E044E352E460916E
:10115000DC057091DD058091DE059091DF050E9430
:101160006B158823DCF060E084E00E94461261E0A9
:1011700085E00E94461260E086E00E94461261E02F
:1011800087E00E94461297C020E030E044E352E43A
:10119000C701B6010E94131488238CF520E030E0CB
:1011A00044E352E46091DC057091DD058091DE0539
:1011B0009091DF050E941314882364F520E030E04D
:1011C00048E352E46091EC057091ED058091EE05E5
:1011D0009091EF050E946B15882364F160E084E034
:1011E0000E94461260E085E00E94461261E086E0BF
:1011F0000E94461261E087E00E9446125CC020E037
:1012000030E044E352E4C701B6010E94131488237E
:101210000CF041C020E030E044E352E46091DC0592
:101220007091DD058091DE059091DF050E94131419
:1012300088238CF520E030E048E352E46091EC052F
:101240007091ED058091EE059091EF050E941314C9
:1012500088230CF520E030E048E352E46091E40597
:101260007091E5058091E6059091E7050E946B1568
:1012700088238CF061E084E00E94461260E085E003
:101280000E94461261E086E00E94461261E087E01B
:101290000E94461210C060E084E00E94461260E0A6
:1012A00085E00E94461260E086E00E94461260E0FF
:1012B00087E00E94461220E030E044E353E460916E
:1012C000EC057091ED058091EE059091EF050E947F
:1012D0006B1588232CF060E089E00E94461204C060
:1012E00061E089E00E9446120E9478026AE372E09F
:1012F00084E696E00E94430F60E672E084E696E0A2
:101300000E94360F4091EC055091ED056091EE057D
:101310007091EF0522E030E084E696E00E948010B4
:101320006CE672E084E696E00E94430F6FE672E09E
:1013300084E696E00E94430F84E696E00E943F0F09
:1013400080916E05882309F444C165E972E084E662
:1013500096E00E94430F6BEB72E084E696E00E94F9
:10136000360F4091E0055091E1056091E2057091E2
:10137000E30522E030E084E696E00E9480106CE60F
:1013800072E084E696E00E94430F63EC72E084E62C
:1013900096E00E94360F4091AC055091AD056091EA
:1013A000AE057091AF0522E030E084E696E00E9441
:1013B000801064ED72E084E696E00E94430F69EDD0
:1013C00072E084E696E00E94360F4091B00550919D
:1013D000B1056091B2057091B30522E030E084E67A
:1013E00096E00E9480106BEE72E084E696E00E9428
:1013F000430F6FE672E084E696E00E94430F84E6B6
:1014000096E00E943F0F6EEE72E084E696E00E9446
:10141000430F64E173E084E696E00E94360F40914A
:10142000DC055091DD056091DE057091DF0522E05D
:1014300030E084E696E00E9480106CE672E084E67C
:1014400096E00E94430F6CE173E084E696E00E9410
:10145000360F4091A8055091A9056091AA05709199
:10146000AB0522E030E084E696E00E9480106EE258
:1014700073E084E696E00E94430F67E373E084E63E
:1014800096E00E94360F4091A4055091A505609109
:10149000A6057091A70522E030E084E696E00E9460
:1014A00080106CE473E084E696E00E94430F6FE6E0
:1014B00072E084E696E00E94430F84E696E00E9484
:1014C0003F0F6FE473E084E696E00E94430F65E708
:1014D00073E084E696E00E94360F4091E405509157
:1014E000E5056091E6057091E70522E030E084E6CD
:1014F00096E00E9480106CE672E084E696E00E941E
:10150000430F6DE773E084E696E00E94360F40914A
:10151000BC055091BD056091BE057091BF0522E0EC
:1015200030E084E696E00E94801066E873E084E68E
:1015300096E00E94430F6FE672E084E696E00E9418
:10154000430F84E696E00E943F0F6CE873E084E668
:1015500096E00E94430F62EB73E084E696E00E94FF
:10156000360F4091B8055091B9056091BA05709158
:10157000BB0522E030E084E696E00E94801064EC37
:1015800073E084E696E00E94430F68EC73E084E623
:1015900096E00E94360F4091B4055091B5056091D8
:1015A000B6057091B70522E030E084E696E00E942F
:1015B00080106BEE72E084E696E00E94430F6FE6C7
:1015C00072E084E696E00E94430F84E696E00E9473
:1015D0003F0F69ED73E084E696E00E94430F6FEFE2
:1015E00073E084E696E00E94360F4091D805509152
:1015F000D9056091DA057091DB0522E030E084E6E0
:1016000096E00E9480106CE672E084E696E00E940C
:10161000430F67E074E084E696E00E94360F409145
:10162000C0055091C1056091C2057091C30522E0CB
:1016300030E084E696E00E94801064EC73E084E67B
:1016400096E00E94430F67E174E084E696E00E9412
:10165000360F4091A0055091A1056091A2057091AF
:10166000A30522E030E084E696E00E9480106BEE55
:1016700072E084E696E00E94430F6FE672E084E633
:1016800096E00E94430F84E696E00E943F0F65E2D9
:1016900074E084E696E00E94430F6BE474E084E615
:1016A00096E00E94360F4091D4055091D505609187
:1016B000D6057091D70522E030E084E696E00E94DE
:1016C00080106CE672E084E696E00E94430F6BE5C2
:1016D00074E084E696E00E94360F4091D005509168
:1016E000D1056091D2057091D30522E030E084E607
:1016F00096E00E9480106DE674E084E696E00E9419
:10170000430F60E774E084E696E00E94360F409154
:10171000C8055091C9056091CA057091CB0522E0BA
:1017200030E084E696E00E94801068E874E084E689
:1017300096E00E94430F6FE672E084E696E00E9416
:10174000430F84E696E00E943F0F6BE874E084E666
:1017500096E00E94430F61EB74E084E696E00E94FD
:10176000360F4091E8055091E9056091EA057091C6
:10177000EB0522E030E084E696E00E9480106CE603
:1017800072E084E696E00E94430F61EC74E084E628
:1017900096E00E94360F4091CC055091CD056091A6
:1017A000CE057091CF0522E030E084E696E00E94FD
:1017B00080106DE674E084E696E00E94430F63EDCE
:1017C00074E084E696E00E94360F4091C405509183
:1017D000C5056091C6057091C70522E030E084E63A
:1017E00096E00E94801068E874E084E696E00E942B
:1017F000430F6FE672E084E696E00E94430F84E6B2
:1018000096E00E943F0F6BEE74E084E696E00E9443
:10181000430F84E696E00E943F0F81E097E00E942C
:101820005E0C892B51F461E175E084E696E00E943C
:10183000430F84E696E00E943F0F64E170E080E091
:1018400090E00E94F11061E575E08AE995E00E9460
:10185000F91261E575E084E995E00E94F91261E50D
:1018600075E08EE895E00E94F91261E575E088E880
:1018700095E00E94F91261E575E082E895E00E942A
:10188000F91261E575E08CE795E00E94F91261E5D7
:1018900075E086E795E00E94F91210926E05DF91DF
:1018A000CF91FF90EF90DF90CF90BF90AF909F903F
:1018B0008F907F906F905F904F900895FC01918D75
:1018C000228D892F90E0805C9F4F821B91098F733E
:1018D00099270895FC01918D828D981731F0828DA2
:1018E000E80FF11D858D90E008958FEF9FEF08952B
:1018F000FC01918D828D981761F0828DDF01A80F18
:10190000B11D5D968C91928D9F5F9F73928F90E039
:1019100008958FEF9FEF089580E090E0892B41F0CC
:1019200080E090E0892B21F00E940000811125C009
:1019300088E19EE0892B41F080E090E0892B21F046
:101940000E94180E81111CC08FEA9EE0892B41F085
:1019500080E090E0892B21F00E94AF0E811113C02E
:1019600080E090E0892BA1F080E090E0892B81F06D
:101970000E94000081110AC008950E940000D8CF83
:101980000E940000E1CF0E940000EACF0C9400000A
:101990000895FC01848DDF01A80FB11DA35ABF4F2C
:1019A0002C91848D90E001968F739927848FA6895E
:1019B000B7892C93A089B1898C9180648C93938D85
:1019C000848D981306C00288F389E02D80818F7D75
:1019D00080830895CF93DF93EC01888D8823C9F02D
:1019E000EA89FB89808185FD05C0A889B9898C9128
:1019F00086FD0FC00FB607FCF5CF808185FFF2CFC3
:101A0000A889B9898C9185FFEDCFCE010E94C90CC0
:101A1000E7CFDF91CF910895EF92FF920F931F933D
:101A2000CF93DF93EC0181E0888F9B8D8C8D981391
:101A300005C0E889F989808185FD24C0F62E0B8DCB
:101A400010E00F5F1F4F0F731127E02E8C8DE812EF
:101A50000CC00FB607FCFACFE889F989808185FFB1
:101A6000F5CFCE010E94C90CF1CF8B8DFE01E80F9E
:101A7000F11DE35AFF4FF0820B8FEA89FB898081C9
:101A8000806207C0EE89FF896083E889F9898081D7
:101A90008064808381E090E0DF91CF911F910F916E
:101AA000FF90EF900895CF92DF92EF92FF921F93F5
:101AB000CF93DF93EC016A017B01122FE889F9894A
:101AC00082E080834115514E61057105B1F060E0FF
:101AD00079E08DE390E0A70196010E94E215DA011A
:101AE000C9010197A109B109B695A7959795879561
:101AF000AC01411580E15807A8F0E889F989108206
:101B000060E874E88EE190E0A70196010E94E2157A
:101B1000BA01A9014150510961097109769567958A
:101B200057954795EC85FD855083EE85FF8540836D
:101B3000188EEC89FD891083EA89FB898081806198
:101B40008083EA89FB89808188608083EA89FB89B8
:101B5000808180688083EA89FB8980818F7D808392
:101B6000DF91CF911F91FF90EF90DF90CF9008957C
:101B70001F920F920FB60F9211240BB60F922F9354
:101B80008F939F93EF93FF93E0917406F091750606
:101B90008081E0917A06F0917B0682FD12C09081EF
:101BA00080917D068F5F8F7320917E06821751F0A2
:101BB000E0917D06F0E0EC59F94F958F80937D061A
:101BC00001C08081FF91EF919F918F912F910F9094
:101BD0000BBE0F900FBE0F901F9018951F920F9283
:101BE0000FB60F9211240BB60F922F933F934F9382
:101BF0005F936F937F938F939F93AF93BF93EF9375
:101C0000FF9384E696E00E94C90CFF91EF91BF918B
:101C1000AF919F918F917F916F915F914F913F9184
:101C20002F910F900BBE0F900FBE0F901F90189525
:101C300084E696E00E945E0C21E0892B09F420E006
:101C4000822F0895E4E6F6E01382128288EE93E094
:101C5000A0E0B0E084839583A683B78383E495E016
:101C6000918380838DEC90E0958784878CEC90E065
:101C70009787868788EC90E0918B808B89EC90E049
:101C8000938B828B8AEC90E0958B848B8EEC90E02A
:101C9000978B868B118E128E138E148E08951F9241
:101CA0000F920FB60F9211240BB60F922F938F93B2
:101CB0009F93EF93FF93E0911107F09112078081BA
:101CC000E0911707F091180782FD12C09081809172
:101CD0001A078F5F8F7320911B07821751F0E091D5
:101CE0001A07F0E0EF5FF84F958F80931A0701C055
:101CF0008081FF91EF919F918F912F910F900BBE5B
:101D00000F900FBE0F901F9018951F920F920FB655
:101D10000F9211240BB60F922F933F934F935F9323
:101D20006F937F938F939F93AF93BF93EF93FF93A3
:101D300081E097E00E94C90CFF91EF91BF91AF91B4
:101D40009F918F917F916F915F914F913F912F91D3
:101D50000F900BBE0F900FBE0F901F90189581E053
:101D600097E00E945E0C21E0892B09F420E0822F8D
:101D70000895E1E0F7E01382128288EE93E0A0E09C
:101D8000B0E084839583A683B78383E495E0918351
:101D9000808385ED90E09587848784ED90E0978738
:101DA000868780ED90E0918B808B81ED90E0938B26
:101DB000828B82ED90E0958B848B86ED90E0978B03
:101DC000868B118E128E138E148E089508950E94A4
:101DD0002D110E94E60E0E94B901CCE8DCE00E94C1
:101DE000A7032097E1F30E948C0CF9CFCF92DF92EA
:101DF000EF92FF920F931F93CF93DF936C017A01C1
:101E00008B01C0E0D0E0CE15DF0589F0D8016D91DF
:101E10008D01D601ED91FC910190F081E02DC6017C
:101E20001995892B11F47E0102C02196ECCFC701D0
:101E3000DF91CF911F910F91FF90EF90DF90CF90A6
:101E400008956115710579F0FB0101900020E9F713
:101E50003197AF01461B570BDC01ED91FC910280DD
:101E6000F381E02D199480E090E008950C94210F07
:101E7000DC01ED91FC910190F081E02D19946FE46B
:101E800075E00C94210F0F931F93CF93DF93EC0118
:101E90000E94210F8C01CE010E943F0F800F911FE5
:101EA000DF91CF911F910F9108954F925F926F92A2
:101EB0007F92EF92FF920F931F93CF93DF93CDB753
:101EC000DEB7A1970FB6F894DEBF0FBECDBF7C0181
:101ED000FA01CB0119A2223008F42AE08E010F5D2D
:101EE0001F4F422E512C612C712CBF01A301920176
:101EF0000E94E215F901CA01015011096A3014F477
:101F0000605D01C0695CD8016C93232B242B252BC9
:101F100061F7B801C7010E94210FA1960FB6F8948E
:101F2000DEBF0FBECDBFDF91CF911F910F91FF900C
:101F3000EF907F906F905F904F9008954F925F92D7
:101F40006F927F928F929F92AF92BF92CF92DF92C9
:101F5000EF92FF92CF93DF93EC016A017B01B22EE7
:101F60009A01AB01C701B6010E94DD15882319F063
:101F700062E575E027C026013701E89477F82FEF76
:101F80003FEF4FE75FE7C301B2010E94DD1581110A
:101F90000DC02FEF3FEF4FE75FE7C301B2010E9493
:101FA000131418161CF466E575E00CC02FEF3FEF14
:101FB0004FE75FE4C701B6010E946B1518169CF449
:101FC0006AE575E0CE01DF91CF91FF90EF90DF9051
:101FD000CF90BF90AF909F908F907F906F905F90C9
:101FE0004F900C94210F2FEF3FEF4FE75FECC701AD
:101FF000B6010E94131487FDE3CF20E030E0A90171
:10200000C701B6010E94131487FF0AC06DE2CE011A
:102010000E94380F4C01F7FAF094F7F8F09402C0E0
:10202000812C912CA12C60E070E080E09FE3AB1448
:1020300041F020E030E040E251E40E941814A39403
:10204000F6CF9B01AC01C701B6010E94A7132B017B
:102050003C010E948A146B017C010E94B9149B010F
:10206000AC01C301B2010E94A6132B013C012AE07E
:10207000B701A601CE010E94550F7C01E80CF91CA6
:10208000BB2031F06EE2CE010E94380FE80EF91E3F
:10209000DB2CDD2029F120E030E040E251E4C301F7
:1020A000B2010E9470152B013C010E948A144B0161
:1020B000A12CB12C2AE0B501A401CE010E94550F3C
:1020C000E80EF91EC501B4010E94B9149B01AC01D0
:1020D000C301B2010E94A6132B013C01DA94D9CFAF
:1020E000C701DF91CF91FF90EF90DF90CF90BF902D
:1020F000AF909F908F907F906F905F904F900895DA
:102100000C949E0F1F920F920FB60F9211242F93D3
:102110003F938F939F93AF93BF9380919F0790912D
:10212000A007A091A107B091A20730919E0723E0DC
:10213000230F2D3720F40196A11DB11D05C026E8FF
:10214000230F0296A11DB11D20939E0780939F0728
:102150009093A007A093A107B093A2078091A30733
:102160009091A407A091A507B091A6070196A11D83
:10217000B11D8093A3079093A407A093A507B093E4
:10218000A607BF91AF919F918F913F912F910F9093
:102190000FBE0F901F9018953FB7F8948091A3073A
:1021A0009091A407A091A507B091A60726B5A89B7A
:1021B00005C02F3F19F00196A11DB11D3FBFBA2FD9
:1021C000A92F982F8827820F911DA11DB11DBC0139
:1021D000CD0142E0660F771F881F991F4A95D1F7FE
:1021E00008958F929F92AF92BF92CF92DF92EF921B
:1021F000FF926B017C010E94CC104B015C01C11469
:10220000D104E104F10401F10E9474130E94CC1086
:10221000DC01CB0188199909AA09BB09883E9340C2
:10222000A105B10560F321E0C21AD108E108F10867
:1022300088EE880E83E0981EA11CB11CC114D10445
:10224000E104F10419F7DBCFFF90EF90DF90CF901E
:10225000BF90AF909F908F900895789484B58260DE
:1022600084BD84B5816084BD85B5826085BD85B53A
:10227000816085BDEEE6F0E0808181608083E1E8E9
:10228000F0E0108280818260808380818160808321
:10229000E0E8F0E0808181608083E1EBF0E0808124
:1022A00084608083E0EBF0E0808181608083E1E9FD
:1022B000F0E0808182608083808181608083E0E9BA
:1022C000F0E0808181608083E1EAF0E080818260DB
:1022D0008083808181608083E0EAF0E0808181609A
:1022E0008083E1E2F1E0808182608083808181608F
:1022F0008083E0E2F1E0808181608083EAE7F0E0C2
:10230000808184608083808182608083808181601D
:1023100080838081806880831092C1000895863315
:1023200008F0865390917B00282F2870977F922B7E
:1023300090937B00877020910A0290E4299F90017E
:102340001124822B80937C0080917A00806480939A
:102350007A0080917A0086FDFCCF809178002091F0
:10236000790090E0922B089590E0FC013197E231E2
:10237000F10508F04EC08827E758FF4F8F4F0C94A7
:102380000416809180008F7703C0809180008F7D3C
:1023900080938000089580918000877FF9CF84B575
:1023A0008F7702C084B58F7D84BD08958091B00081
:1023B0008F7703C08091B0008F7D8093B000089527
:1023C000809190008F7707C0809190008F7D03C02F
:1023D00080919000877F8093900008958091A00065
:1023E0008F7707C08091A0008F7D03C08091A000EF
:1023F000877F8093A0000895809120018F7707C088
:10240000809120018F7D03C080912001877F809380
:1024100020010895CF93DF9390E0FC01E050FE4F40
:102420002491FC01EA5BFD4F8491882361F190E0E7
:10243000880F991FFC01EA55FD4FC591D491FC010D
:10244000E457FD4FA591B491611109C09FB7F8946D
:102450008881209582238883EC912E230BC06230E3
:1024600061F49FB7F8943881822F80958323888305
:10247000EC912E2B2C939FBF06C08FB7F894E88168
:102480002E2B28838FBFDF91CF9108951F93CF9379
:10249000DF93282F30E0F901E654FE4F8491F901D3
:1024A000E050FE4FD491F901EA5BFD4FC491CC237B
:1024B000C9F0162F81110E94B411EC2FF0E0EE0F3D
:1024C000FF1FE457FD4FA591B4918FB7F8941111F8
:1024D00005C09C91ED2FE095E92302C0EC91ED2B16
:1024E000EC938FBFDF91CF911F910895FC01808104
:1024F00091810C94A116CF93DF93EC01888199818F
:10250000009711F00E94A116198218821D821C8268
:102510001B821A82DF91CF9108950F931F93CF935F
:10252000DF93EC018B016F5F7F4F888199810E945F
:102530003917009731F0998388831B830A8381E0E0
:1025400001C080E0DF91CF911F910F910895CF934B
:10255000DF93EC0188819981892B29F08A819B8105
:102560008617970760F4CE010E948D12882341F0F0
:102570008C819D81892B19F4E881F981108281E099
:10258000DF91CF910895EF92FF920F931F93CF9316
:10259000DF93EC017B018A01BA010E94A71281112D
:1025A00004C0CE010E947B1207C01D830C83B701BB
:1025B000888199810E943818CE01DF91CF911F91B7
:1025C0000F91FF90EF900895FC0111821082138209
:1025D0001282158214826115710551F0FB01019080
:1025E0000020E9F73197AF01461B570B0C94C3123B
:1025F0000895CF93DF93EC016115710559F0FB014C
:1026000001900020E9F73197AF01461B570B0E945C
:10261000C31202C00E947B12CE01DF91CF910895B8
:10262000EF92FF920F931F93CF93DF93FC012481CE
:1026300035816115710511F480E019C0411551050E
:10264000A9F07B01EC018A01020F131FB8010E945F
:10265000A712882389F3288139818C819D81B70154
:10266000820F931F0E9438181D830C8381E0DF9135
:10267000CF911F910F91FF90EF900895CF93DF932B
:102680001F921F92CDB7DEB769831A8241E050E0F6
:10269000BE016F5F7F4F0E9410130F900F90DF916C
:1026A000CF910895FC0180819181009711F00C94E5
:1026B000221860E070E0CB0108950C945213EFEF04
:1026C000F0E083E08083608381E090E008958BEA0E
:1026D00097E00E949213E7EAF7E01382128282E603
:1026E00095E09183808308950895FC01538342838C
:1026F000648315820895CF93DF93EC018A819B81D7
:10270000009769F06F8161110E94380F8C818823D6
:1027100031F08A819B81DF91CF910C943F0FDF9143
:10272000CF910895FC018AE695E09183808313821E
:102730001282148215821682178282E090E09187BD
:1027400080878AE090E09387828708955058BB275E
:10275000AA270E94BE130C9431150E94231538F04D
:102760000E942A1520F039F49F3F19F426F40C94A6
:1027700020150EF4E095E7FB0C941A15E92F0E9442
:10278000421558F3BA17620773078407950720F0BC
:1027900079F4A6F50C9464150EF4E0950B2EBA2F7F
:1027A000A02D0B01B90190010C01CA01A001112457
:1027B000FF27591B99F0593F50F4503E68F11A1603
:1027C000F040A22F232F342F4427585FF3CF469594
:1027D00037952795A795F0405395C9F77EF41F16B6
:1027E000BA0B620B730B840BBAF09150A1F0FF0F80
:1027F000BB1F661F771F881FC2F70EC0BA0F621F6C
:10280000731F841F48F4879577956795B795F7955B
:102810009E3F08F0B0CF9395880F08F09927EE0FF0
:102820009795879508950E94F61408F481E008951D
:102830000E942C140C9431150E942A1558F00E9405
:10284000231540F029F45F3F29F00C941A1551111B
:102850000C9465150C9420150E94421568F3992379
:10286000B1F3552391F3951B550BBB27AA2762178C
:102870007307840738F09F5F5F4F220F331F441F99
:10288000AA1FA9F335D00E2E3AF0E0E832D09150CD
:102890005040E695001CCAF72BD0FE2F29D0660FBA
:1028A000771F881FBB1F261737074807AB07B0E8FD
:1028B00009F0BB0B802DBF01FF2793585F4F3AF003
:1028C0009E3F510578F00C941A150C9465155F3FE6
:1028D000E4F3983ED4F3869577956795B795F79589
:1028E0009F5FC9F7880F911D9695879597F9089571
:1028F000E1E0660F771F881FBB1F6217730784070D
:10290000BA0720F0621B730B840BBA0BEE1F88F71B
:10291000E09508950E944A1588F09F5798F0B92FC6
:102920009927B751B0F0E1F0660F771F881F991F04
:102930001AF0BA95C9F714C0B13091F00E9464152D
:10294000B1E008950C946415672F782F8827B85F3D
:1029500039F0B93FCCF3869577956795B395D9F75C
:102960003EF490958095709561957F4F8F4F9F4F66
:102970000895E89409C097FB3EF490958095709572
:1029800061957F4F8F4F9F4F9923A9F0F92F96E9BB
:10299000BB279395F695879577956795B795F11130
:1029A000F8CFFAF4BB0F11F460FF1BC06F5F7F4FCD
:1029B0008F4F9F4F16C0882311F096E911C07723DF
:1029C00021F09EE8872F762F05C0662371F096E8E8
:1029D000862F70E060E02AF09A95660F771F881FB7
:1029E000DAF7880F9695879597F90895990F00085B
:1029F000550FAA0BE0E8FEEF16161706E807F907D1
:102A0000C0F012161306E407F50798F0621B730B6B
:102A1000840B950B39F40A2661F0232B242B252BEC
:102A200021F408950A2609F4A140A6958FEF811D8F
:102A3000811D089597F99F6780E870E060E0089530
:102A40009FEF80EC089500240A94161617061806C6
:102A50000906089500240A941216130614060506A2
:102A60000895092E0394000C11F4882352F0BB0F33
:102A700040F4BF2B11F460FF04C06F5F7F4F8F4F96
:102A80009F4F089557FD9058440F551F59F05F3FD1
:102A900071F04795880F97FB991F61F09F3F79F080
:102AA00087950895121613061406551FF2CF469502
:102AB000F1DF08C0161617061806991FF1CF869584
:102AC0007105610508940895E894BB276627772768
:102AD000CB0197F908950E94F61408F48FEF08953A
:102AE0000E9483150C9431150E94231538F00E9422
:102AF0002A1520F0952311F00C941A150C9420152A
:102B000011240C9465150E94421570F3959FC1F332
:102B1000950F50E0551F629FF001729FBB27F00D8B
:102B2000B11D639FAA27F00DB11DAA1F649F6627E0
:102B3000B00DA11D661F829F2227B00DA11D621F2F
:102B4000739FB00DA11D621F839FA00D611D221FE9
:102B5000749F3327A00D611D231F849F600D211DCD
:102B6000822F762F6A2F11249F5750409AF0F1F050
:102B700088234AF0EE0FFF1FBB1F661F771F881FB9
:102B800091505040A9F79E3F510580F00C941A15C2
:102B90000C9465155F3FE4F3983ED4F386957795E2
:102BA0006795B795F795E7959F5FC1F7FE2B880F5F
:102BB000911D9695879597F908950E94F614880BB4
:102BC000990B0895A1E21A2EAA1BBB1BFD010DC093
:102BD000AA1FBB1FEE1FFF1FA217B307E407F507CD
:102BE00020F0A21BB30BE40BF50B661F771F881FA9
:102BF000991F1A9469F760957095809590959B013F
:102C0000AC01BD01CF010895EE0FFF1F881F8BBFE0
:102C10000790F691E02D1994CF93DF9382309105C0
:102C200010F482E090E0E091B907F091BA0720E05B
:102C300030E0C0E0D0E0309711F140815181481779
:102C40005907C0F04817590761F482819381209792
:102C500019F09B838A832BC09093BA078093B9079E
:102C600026C02115310519F04217530718F49A01AF
:102C7000BE01DF01EF010280F381E02DDCCF2115E1
:102C8000310509F1281B390B2430310590F41296D7
:102C90008D919C9113976115710521F0FB01938330
:102CA000828304C09093BA078093B907FD013296DE
:102CB00044C0FD01E20FF31F81939193225031092B
:102CC0002D933C933AC02091B7073091B807232B3E
:102CD00041F420910202309103023093B80720930F
:102CE000B70720910002309101022115310541F40E
:102CF0002DB73EB74091040250910502241B350BBD
:102D0000E091B707F091B807E217F307A0F42E1B84
:102D10003F0B2817390778F0AC014E5F5F4F24173F
:102D2000350748F04E0F5F1F5093B8074093B70721
:102D30008193919302C0E0E0F0E0CF01DF91CF9169
:102D400008950F931F93CF93DF93009709F48CC0DE
:102D5000FC013297138212820091B9071091BA07D1
:102D60000115110581F420813181820F931F20917B
:102D7000B7073091B8072817390779F5F093B807E6
:102D8000E093B70771C0D80140E050E0AE17BF072D
:102D900050F412962D913C911397AD0121153105F8
:102DA00009F1D901F3CF9D01DA01338322836081D8
:102DB0007181860F971F8217930769F4EC012881B0
:102DC0003981260F371F2E5F3F4F318320838A8141
:102DD0009B8193838283452B29F4F093BA07E09378
:102DE000B90742C01396FC93EE931297ED014991F7
:102DF00059919E01240F351FE217F30771F480816A
:102E00009181840F951F029611969C938E938281D7
:102E1000938113969C938E931297E0E0F0E0D80193
:102E200012968D919C911397009719F0F8018C01DF
:102E3000F6CF8D919C9198012E5F3F4F820F931F8B
:102E40002091B7073091B8072817390769F43097F0
:102E500029F41092BA071092B90702C013821282A5
:102E60001093B8070093B707DF91CF911F910F918F
:102E700008956F927F928F929F92AF92BF92CF925E
:102E8000DF92EF92FF920F931F93CF93DF93EC01AA
:102E9000009789F4CB01DF91CF911F910F91FF90A3
:102EA000EF90DF90CF90BF90AF909F908F907F90EA
:102EB0006F900C940C16FC01E60FF71F9C0122503A
:102EC0003109E217F30708F4ACC0D9010D911C9148
:102ED000119706171707B0F00530110508F49FC0C9
:102EE000C80104978617970708F499C00250110982
:102EF000061B170B019311936D937C93CF010E94D6
:102F0000A1168DC05B01A01AB10A4C01800E911E62
:102F1000A091B907B091BA0740E050E0E12CF12C44
:102F2000109709F44AC0A815B905D1F56D907C90A9
:102F30001197630182E0C80ED11CCA14DB0480F132
:102F4000A3014A195B096A0182E0C80ED11C1296DE
:102F5000BC9012971396AC91B5E0CB16D10440F01B
:102F6000B282A38351834083D9016D937C930AC0BD
:102F70000E5F1F4FC301800F911FF9019183808362
:102F8000EB2DFA2FE114F10431F0D7011396FC93E5
:102F9000EE93129744C0F093BA07E093B9073FC08D
:102FA0008D919C9111974817590708F4AC017D0148
:102FB00012960D90BC91A02DB3CF8091B707909140
:102FC000B80788159905E1F446175707C8F48091AA
:102FD000000290910102009741F48DB79EB7409195
:102FE000040250910502841B950BE817F907C8F4F9
:102FF000F093B807E093B707F901718360830FC0BE
:10300000CB010E940C167C01009759F0A801BE016B
:103010000E942F18CE010E94A116C70104C0CE0144
:1030200002C080E090E0DF91CF911F910F91FF905F
:10303000EF90DF90CF90BF90AF909F908F907F9058
:103040006F900895662777270C943F1891110C9480
:10305000AE19803219F089508550C8F70895FB01E8
:10306000DC0102C001900D9241505040D8F7089504
:10307000FB01DC0101900D920020E1F708956F92B1
:103080007F928F929F92AF92BF92CF92DF92EF92F8
:10309000FF920F931F93CF93DF93EC017B01611598
:1030A000710519F0DB018D939C938E010F5F1F4F0B
:1030B0007880872D90E00E942618892B11F0E80176
:1030C000F4CFBDE27B1205C00F5F1F4F7980C1E0D6
:1030D00008C0EBE27E1204C08E010E5F1F4F7980A4
:1030E000C0E06801F1E0CF1AD10843E050E068EC9D
:1030F00072E0C6010E94B119892BF1F4680122E047
:10310000C20ED11C45E050E063EC72E0C6010E94A3
:10311000B119892B21F4680187E0C80ED11CE11494
:10312000F10419F0D701CD92DC92C111FFC060E02B
:1031300070E080E89FE703C143E050E060EC72E09C
:10314000C6010E94B119892B51F4E114F10409F46C
:10315000F2C00E5F1F4FF70111830083ECC06801BE
:1031600060E070E0CB0100E010E0F601D0EDD70D9B
:10317000DA3058F52C2F2260622E2C2F2870C2FFD7
:1031800005C0211128C00F5F1F4F25C0222311F059
:1031900001501109A5E0B0E09B01AC010E94C919E2
:1031A0004B015C01880C991CAA1CBB1CC501B40115
:1031B0006D0F711D811D911D6839A9E97A078A0774
:1031C000A9E19A0740F0C66005C0DE3F51F4C3FD97
:1031D00044C0C8606C2EBFEFCB1ADB0A7080C62DCE
:1031E000C4CF2D2F2F7D2531C1F540814D3211F4F3
:1031F000C06106C04B3221F0319621E030E006C0BC
:103200003296D60111964C9122E030E0A0EDA40F49
:10321000AA3018F0E21BF30B20C040E050E0403829
:10322000BCE05B075CF49A01220F331F220F331FAF
:10323000420F531F440F551F4A0F511D3196DF0196
:1032400011972C91A0EDA20FAA3048F3C4FF03C040
:10325000519541955109040F151FC1FF07C0E11495
:10326000F10421F03197D701ED93FC930E94B9143A
:10327000C370C33019F06B017C0106C06B017C0187
:10328000F7FAF094F7F8F09420E030E0A901C701D4
:10329000B6010E941314882309F445C017FF06C025
:1032A000119501951109CFEDD2E002C0C7EFD2E030
:1032B0005E01B8E1AB1AB1084601BE2DAF2D90E218
:1032C000E92EF12C0E151F0584F0FE012591359194
:1032D00045915491B4018B2F9A2F0E9470154B0188
:1032E000B82FA92F0E191F09EDCF2497F594E79455
:1032F000CA15DB0539F76401EB2EFA2E8E2D880FE7
:103300008F2D881F8F3F49F020E030E0A901C701D1
:10331000B6010E941314811106C082E290E09093DE
:10332000BC078093BB07C701B60109C060E070E02D
:1033300080E89FEF04C060E070E080EC9FE7DF91E1
:10334000CF911F910F91FF90EF90DF90CF90BF90A2
:10335000AF909F908F907F906F90089599278827C6
:103360000895FB01DC014150504088F08D9181347B
:103370001CF08B350CF4805E659161341CF06B356C
:103380000CF4605E861B611171F3990B0895881B24
:10339000FCCF0E94D419A59F900DB49F900DA49FBF
:1033A000800D911D11240895A29FB001B39FC0010B
:1033B000A39F700D811D1124911DB29F700D811D61
:1033C0001124911D089511E0C2E8D1E000E006C08B
:1033D000802FFE010E9404162196011DC338D107DB
:0A33E00080E00807A9F7F894FFCF7A
:1033EA000000BD0780008FC2753D013D3D20454E5E
:1033FA00455247495941205441274D494E4F544956
:10340A00204D414E42414C415249204D4F4E495464
:10341A004F52494E4749203D3D003D3D3D3D3D3DD2
:10342A003D3D3D3D204D45544D207169796D617496
:10343A006C617269203D3D3D3D3D3D3D3D3D3D0058
:10344A00555F4D61726B617A203D20002056003D28
:10345A003D3D3D3D3D3D3D3D3D3D3D3D3D3D3D3D92
:10346A003D3D3D3D3D3D3D3D3D3D3D3D3D3D3D3D82
:10347A003D3D3D3D003D3D3D3D3D3D3D3D3D3D20CC
:10348A005145544D207169796D61746C617269207E
:10349A003D3D3D3D3D3D3D3D3D3D00555F5150204B
:1034AA003D2000596F726974696C67616E6C696B53
:1034BA00203D2000204C5558004368616E676C61BE
:1034CA006E67616E6C696B203D20002025003D3DD2
:1034DA003D3D3D3D3D3D3D20534845544D2071699C
:1034EA00796D61746C617269203D3D3D3D3D3D3DA4
:1034FA003D3D3D00555F5348203D20005368616DB6
:10350A006F6C2074657A6C696769203D2000206BB6
:10351A006D2F736F6174005368616D6F6C20796FE2
:10352A00276E616C69736869203D2000202A003D7E
:10353A003D3D3D3D3D3D3D3D3D3D2044472071697A
:10354A00796D61746C617269203D3D3D3D3D3D3D43
:10355A003D3D3D3D00555F4447203D200044697A8A
:10356A00656C203D2000206C697472003D3D3D3D34
:10357A003D3D3D3D3D3D204D756869742071697939
:10358A006D61746C617269203D3D3D3D3D3D3D3D3F
:10359A003D004D75686974204861726F7261746983
:1035AA00203D2000202A43004D75686974204E6131
:1035BA006D6C696769203D20003D3D3D3D3D3D3DC7
:1035CA003D3D3D3D3D204142207169796D61746CFC
:1035DA00617269203D3D3D3D3D3D3D3D3D3D0055CE
:1035EA005F4142203D2000414B42206861726F7268
:1035FA00617469203D2000414B42207A61727961F1
:10360A0064203D20003D3D3D3D3D3D3D204443205D
:10361A0079756B6C616D61207169796D61746C612A
:10362A007269203D3D3D3D3D3D3D0059756B6C61E4
:10363A006D612028444329203D2000546F6B206B84
:10364A00756368692028444329203D2000204100F1
:10365A00497374656D6F6C20717576766174692033
:10366A0028444329203D20002057003D3D3D3D3D53
:10367A003D3D2041432079756B6C616D6120716914
:10368A00796D61746C617269203D3D3D3D3D3D3D02
:10369A000059756B6C616D612028414329203D20DA
:1036AA0000546F6B206B7563686920284143292099
:1036BA003D2000497374656D6F6C20717576766173
:1036CA0074692028414329203D2000787878787849
:1036DA007878787878787878787878787878787860
:1036EA007878787878787878787878787878787850
:1036FA00003D3D3D3D3D3D3D2053696D73697A2056
:10370A007461726D6F71646120757A756C69736822
:10371A00202120212021203D3D3D3D3D3D3D000011
:10372A000000000C0DF60E5E0C780C6A0CEA0C0D0B
:10373A000A006E616E00696E66006F7666000000B0
:0E374A0000005F13F60E0000000075137B13E5
:00000001FF
